{
  "contractName": "Identity",
  "abi": [
    {
      "anonymous": false,
      "inputs": [
        {
          "indexed": false,
          "internalType": "string",
          "name": "uniqueId",
          "type": "string"
        },
        {
          "indexed": false,
          "internalType": "string",
          "name": "deviceName",
          "type": "string"
        },
        {
          "indexed": false,
          "internalType": "string",
          "name": "deviceType",
          "type": "string"
        },
        {
          "indexed": false,
          "internalType": "address",
          "name": "owner",
          "type": "address"
        }
      ],
      "name": "DeviceRegistered",
      "type": "event"
    },
    {
      "anonymous": false,
      "inputs": [
        {
          "indexed": false,
          "internalType": "string",
          "name": "uniqueId",
          "type": "string"
        }
      ],
      "name": "DeviceStolen",
      "type": "event"
    },
    {
      "anonymous": false,
      "inputs": [
        {
          "indexed": false,
          "internalType": "string",
          "name": "uniqueId",
          "type": "string"
        },
        {
          "indexed": false,
          "internalType": "address",
          "name": "previousOwner",
          "type": "address"
        },
        {
          "indexed": false,
          "internalType": "address",
          "name": "newOwner",
          "type": "address"
        }
      ],
      "name": "DeviceTransferred",
      "type": "event"
    },
    {
      "constant": true,
      "inputs": [
        {
          "internalType": "string",
          "name": "",
          "type": "string"
        }
      ],
      "name": "devices",
      "outputs": [
        {
          "internalType": "string",
          "name": "uniqueId",
          "type": "string"
        },
        {
          "internalType": "string",
          "name": "deviceName",
          "type": "string"
        },
        {
          "internalType": "string",
          "name": "deviceType",
          "type": "string"
        },
        {
          "internalType": "address",
          "name": "currentOwner",
          "type": "address"
        },
        {
          "internalType": "bool",
          "name": "isRegistered",
          "type": "bool"
        },
        {
          "internalType": "bool",
          "name": "stolen",
          "type": "bool"
        }
      ],
      "payable": false,
      "stateMutability": "view",
      "type": "function"
    },
    {
      "constant": false,
      "inputs": [
        {
          "internalType": "string",
          "name": "_uniqueId",
          "type": "string"
        },
        {
          "internalType": "string",
          "name": "_deviceName",
          "type": "string"
        },
        {
          "internalType": "string",
          "name": "_deviceType",
          "type": "string"
        }
      ],
      "name": "register",
      "outputs": [],
      "payable": false,
      "stateMutability": "nonpayable",
      "type": "function"
    },
    {
      "constant": false,
      "inputs": [
        {
          "internalType": "string",
          "name": "_uniqueId",
          "type": "string"
        },
        {
          "internalType": "address",
          "name": "_newOwner",
          "type": "address"
        }
      ],
      "name": "transferOwnership",
      "outputs": [],
      "payable": false,
      "stateMutability": "nonpayable",
      "type": "function"
    },
    {
      "constant": false,
      "inputs": [
        {
          "internalType": "string",
          "name": "_uniqueId",
          "type": "string"
        }
      ],
      "name": "updateStolenStatus",
      "outputs": [],
      "payable": false,
      "stateMutability": "nonpayable",
      "type": "function"
    },
    {
      "constant": true,
      "inputs": [
        {
          "internalType": "string",
          "name": "_uniqueId",
          "type": "string"
        }
      ],
      "name": "getCurrentOwner",
      "outputs": [
        {
          "internalType": "address",
          "name": "",
          "type": "address"
        }
      ],
      "payable": false,
      "stateMutability": "view",
      "type": "function"
    },
    {
      "constant": true,
      "inputs": [
        {
          "internalType": "string",
          "name": "_uniqueId",
          "type": "string"
        }
      ],
      "name": "getPastOwners",
      "outputs": [
        {
          "internalType": "address[]",
          "name": "",
          "type": "address[]"
        }
      ],
      "payable": false,
      "stateMutability": "view",
      "type": "function"
    },
    {
      "constant": true,
      "inputs": [
        {
          "internalType": "string",
          "name": "_uniqueId",
          "type": "string"
        }
      ],
      "name": "isDeviceStolen",
      "outputs": [
        {
          "internalType": "bool",
          "name": "",
          "type": "bool"
        }
      ],
      "payable": false,
      "stateMutability": "view",
      "type": "function"
    }
  ],
  "bytecode": "0x608060405234801561001057600080fd5b50611180806100206000396000f3fe608060405234801561001057600080fd5b506004361061009a576000357c01000000000000000000000000000000000000000000000000000000009004806393f912c51161007857806393f912c51461048d578063c0e793c2146104fd578063d55a772d14610583578063f102a97e1461061c5761009a565b8063222333961461009f5780634cd08d03146102b75780639149a0fa146103cd575b600080fd5b610145600480360360208110156100b557600080fd5b8101906020810181356401000000008111156100d057600080fd5b8201836020820111156100e257600080fd5b8035906020019184600183028401116401000000008311171561010457600080fd5b91908080601f0160208091040260200160405190810160405280939291908181526020018383808284376000920191909152509295506106a0945050505050565b6040805173ffffffffffffffffffffffffffffffffffffffff85166060820152831515608082015282151560a082015260c080825288519082015287519091829160208084019284019160e08501918c019080838360005b838110156101b557818101518382015260200161019d565b50505050905090810190601f1680156101e25780820380516001836020036101000a031916815260200191505b5084810383528951815289516020918201918b019080838360005b838110156102155781810151838201526020016101fd565b50505050905090810190601f1680156102425780820380516001836020036101000a031916815260200191505b5084810382528851815288516020918201918a019080838360005b8381101561027557818101518382015260200161025d565b50505050905090810190601f1680156102a25780820380516001836020036101000a031916815260200191505b50995050505050505050505060405180910390f35b6103cb600480360360608110156102cd57600080fd5b8101906020810181356401000000008111156102e857600080fd5b8201836020820111156102fa57600080fd5b8035906020019184600183028401116401000000008311171561031c57600080fd5b91939092909160208101903564010000000081111561033a57600080fd5b82018360208201111561034c57600080fd5b8035906020019184600183028401116401000000008311171561036e57600080fd5b91939092909160208101903564010000000081111561038c57600080fd5b82018360208201111561039e57600080fd5b803590602001918460018302840111640100000000831117156103c057600080fd5b5090925090506108ac565b005b61043d600480360360208110156103e357600080fd5b8101906020810181356401000000008111156103fe57600080fd5b82018360208201111561041057600080fd5b8035906020019184600183028401116401000000008311171561043257600080fd5b509092509050610bf8565b60408051602080825283518183015283519192839290830191858101910280838360005b83811015610479578181015183820152602001610461565b505050509050019250505060405180910390f35b6103cb600480360360208110156104a357600080fd5b8101906020810181356401000000008111156104be57600080fd5b8201836020820111156104d057600080fd5b803590602001918460018302840111640100000000831117156104f257600080fd5b509092509050610c8a565b6103cb6004803603604081101561051357600080fd5b81019060208101813564010000000081111561052e57600080fd5b82018360208201111561054057600080fd5b8035906020019184600183028401116401000000008311171561056257600080fd5b91935091503573ffffffffffffffffffffffffffffffffffffffff16610d2c565b6105f36004803603602081101561059957600080fd5b8101906020810181356401000000008111156105b457600080fd5b8201836020820111156105c657600080fd5b803590602001918460018302840111640100000000831117156105e857600080fd5b509092509050610f7f565b6040805173ffffffffffffffffffffffffffffffffffffffff9092168252519081900360200190f35b61068c6004803603602081101561063257600080fd5b81019060208101813564010000000081111561064d57600080fd5b82018360208201111561065f57600080fd5b8035906020019184600183028401116401000000008311171561068157600080fd5b509092509050610fc8565b604080519115158252519081900360200190f35b805160208183018101805160008252928201938201939093209190925280546040805160026001841615610100026000190190931692909204601f81018590048502830185019091528082529192909183918301828280156107435780601f1061071857610100808354040283529160200191610743565b820191906000526020600020905b81548152906001019060200180831161072657829003601f168201915b505050505090806001018054600181600116156101000203166002900480601f0160208091040260200160405190810160405280929190818152602001828054600181600116156101000203166002900480156107e15780601f106107b6576101008083540402835291602001916107e1565b820191906000526020600020905b8154815290600101906020018083116107c457829003601f168201915b50505060028085018054604080516020601f60001961010060018716150201909416959095049283018590048502810185019091528181529596959450909250908301828280156108735780601f1061084857610100808354040283529160200191610873565b820191906000526020600020905b81548152906001019060200180831161085657829003601f168201915b505050506003830154600590930154919273ffffffffffffffffffffffffffffffffffffffff169160ff80821692506101009091041686565b6000868660405180838380828437919091019485525050604051928390036020019092206005015460ff16159150610947905057604080517f08c379a000000000000000000000000000000000000000000000000000000000815260206004820152601960248201527f44657669636520616c7265616479207265676973746572656400000000000000604482015290519081900360640190fd5b6040518060e0016040528087878080601f016020809104026020016040519081016040528093929190818152602001838380828437600092019190915250505090825250604080516020601f880181900481028201810190925286815291810191908790879081908401838280828437600092019190915250505090825250604080516020601f860181900481028201810190925284815291810191908590859081908401838280828437600092018290525093855250503360208085019190915260408051848152918201815280850191909152600160608501526080909301829052509051889088908083838082843791909101948552505060405160209381900384019020845180519194610a6494508593500190611004565b506020828101518051610a7d9260018501920190611004565b5060408201518051610a99916002840191602090910190611004565b50606082015160038201805473ffffffffffffffffffffffffffffffffffffffff191673ffffffffffffffffffffffffffffffffffffffff90921691909117905560808201518051610af5916004840191602090910190611082565b5060a0828101516005909201805460c09094015115156101000261ff001993151560ff199095169490941792909216929092179055604080513360608201819052608080835282018990527fc39aa35d2555a56fe3c5b9a927c9a0549ad42876ea0666f76f0d8a2793f24a48938a938a938a938a938a938a9391829160208301919083019083018b8b80828437600083820152601f01601f191690910185810384528981526020019050898980828437600083820152601f01601f191690910185810383528781526020019050878780828437600083820152604051601f909101601f19169092018290039c50909a5050505050505050505050a1505050505050565b606060008383604051808383808284379190910194855250506040805193849003602090810185206004018054808302870183019093528286529350909150830182828015610c7d57602002820191906000526020600020905b815473ffffffffffffffffffffffffffffffffffffffff168152600190910190602001808311610c52575b5050505050905092915050565b600160008383604051808383808284379190910194855250506040805160209481900385018120600501805461ff0019166101009715159790970296909617909555838552928401859052507ff3cdbf08b19713cc3f81bc96c8c0122bced6995436878638a15c3cc4e026a43492859285925081908101848480828437600083820152604051601f909101601f19169092018290039550909350505050a15050565b6000838360405180838380828437919091019485525050604051928390036020019092206005015460ff169150610dc6905057604080517f08c379a000000000000000000000000000000000000000000000000000000000815260206004820152601560248201527f446576696365206e6f7420726567697374657265640000000000000000000000604482015290519081900360640190fd5b600083836040518083838082843780830192505050925050509081526020016040518091039020600401600084846040518083838082843791909101948552505060405192839003602090810184206003015485546001810187556000968752918620909101805473ffffffffffffffffffffffffffffffffffffffff191673ffffffffffffffffffffffffffffffffffffffff909216919091179055507ff4f226f2f09b02cb0c68ebda8a6968aa4e32bfa4a5373a49c069cdf7439a4ba5928692869250839083908083838082843791909101948552505060408051602094819003850181206003015473ffffffffffffffffffffffffffffffffffffffff9081169582018690528916918101919091526060808252810185905287925090508060808101868680828437600083820152604051601f909101601f191690920182900397509095505050505050a180600084846040518083838082843791909101948552505060405192839003602001909220600301805473ffffffffffffffffffffffffffffffffffffffff9490941673ffffffffffffffffffffffffffffffffffffffff19909416939093179092555050505050565b600080838360405180838380828437919091019485525050604051928390036020019092206003015473ffffffffffffffffffffffffffffffffffffffff169250505092915050565b600080838360405180838380828437919091019485525050604051928390036020019092206005015460ff610100909104169250505092915050565b828054600181600116156101000203166002900490600052602060002090601f016020900481019282601f1061104557805160ff1916838001178555611072565b82800160010185558215611072579182015b82811115611072578251825591602001919060010190611057565b5061107e9291506110fd565b5090565b8280548282559060005260206000209081019282156110f1579160200282015b828111156110f1578251825473ffffffffffffffffffffffffffffffffffffffff191673ffffffffffffffffffffffffffffffffffffffff9091161782556020909201916001909101906110a2565b5061107e92915061111a565b61111791905b8082111561107e5760008155600101611103565b90565b61111791905b8082111561107e57805473ffffffffffffffffffffffffffffffffffffffff1916815560010161112056fea265627a7a7231582037eb5496cb39d75c9bec30b14e5d9c93dbf1f8d3bac159c767b71b50ddfa245c64736f6c63430005100032",
  "source": "// SPDX-License-Identifier: MIT\npragma solidity >=0.5.2;\n\ncontract Identity {\n    struct Device {\n        string uniqueId;\n        string deviceName;\n        string deviceType;\n        address currentOwner;\n        address[] pastOwners;\n        bool isRegistered;\n        bool stolen;\n    }\n\n    mapping(string => Device) public devices;\n\n    event DeviceRegistered(string uniqueId, string deviceName, string deviceType, address owner);\n    event DeviceTransferred(string uniqueId, address previousOwner, address newOwner);\n    event DeviceStolen(string uniqueId);\n\n    function register(string calldata _uniqueId, string calldata _deviceName, string calldata _deviceType) external {\n        require(!devices[_uniqueId].isRegistered, \"Device already registered\");\n        devices[_uniqueId] = Device(_uniqueId, _deviceName, _deviceType, msg.sender, new address[](0), true, false);\n        emit DeviceRegistered(_uniqueId, _deviceName, _deviceType, msg.sender);\n    }\n\n    function transferOwnership(string calldata _uniqueId, address _newOwner) external {\n        require(devices[_uniqueId].isRegistered, \"Device not registered\");\n        \n        devices[_uniqueId].pastOwners.push(devices[_uniqueId].currentOwner);\n        emit DeviceTransferred(_uniqueId, devices[_uniqueId].currentOwner, _newOwner);\n        devices[_uniqueId].currentOwner = _newOwner;\n    }\n\n    function updateStolenStatus(string calldata _uniqueId) external {\n        devices[_uniqueId].stolen = true;\n        emit DeviceStolen(_uniqueId);\n    }\n\n    function getCurrentOwner(string calldata _uniqueId) external view returns (address) {\n        return devices[_uniqueId].currentOwner;\n    }\n\n    function getPastOwners(string calldata _uniqueId) external view returns (address[] memory) {\n        return devices[_uniqueId].pastOwners;\n    }\n\n    function isDeviceStolen(string calldata _uniqueId) external view returns (bool) {\n        return devices[_uniqueId].stolen;\n    }\n}\n",
  "sourcePath": "C:\\Users\\jahna\\Desktop\\sem 6\\BCP\\Blockchain-Framework-for-AI-Robot-Identity-and-Access-Management-main\\contracts\\Identity.sol",
  "compiler": {
    "name": "solc",
    "version": "0.5.16+commit.9c3226ce.Emscripten.clang"
  },
  "schemaVersion": "3.4.16",
  "updatedAt": "2024-04-23T10:16:37.872Z",
  "networkType": "ethereum",
  "devdoc": {
    "methods": {}
  },
  "userdoc": {
    "methods": {}
  }
}